{
  "contractName": "RegisteredUsers",
  "abi": [
    {
      "inputs": [],
      "stateMutability": "nonpayable",
      "type": "constructor"
    },
    {
      "inputs": [
        {
          "internalType": "uint256",
          "name": "",
          "type": "uint256"
        }
      ],
      "name": "users",
      "outputs": [
        {
          "internalType": "string",
          "name": "name",
          "type": "string"
        },
        {
          "internalType": "string",
          "name": "email",
          "type": "string"
        },
        {
          "internalType": "string",
          "name": "role",
          "type": "string"
        },
        {
          "internalType": "uint256",
          "name": "uid",
          "type": "uint256"
        },
        {
          "internalType": "string",
          "name": "walletAddress",
          "type": "string"
        }
      ],
      "stateMutability": "view",
      "type": "function",
      "constant": true
    },
    {
      "inputs": [
        {
          "internalType": "string",
          "name": "name_",
          "type": "string"
        },
        {
          "internalType": "string",
          "name": "email_",
          "type": "string"
        },
        {
          "internalType": "string",
          "name": "role_",
          "type": "string"
        },
        {
          "internalType": "uint256",
          "name": "uid_",
          "type": "uint256"
        },
        {
          "internalType": "string",
          "name": "walletAddress_",
          "type": "string"
        }
      ],
      "name": "register",
      "outputs": [],
      "stateMutability": "nonpayable",
      "type": "function"
    }
  ],
  "bytecode": "0x608060405234801561001057600080fd5b50610a26806100206000396000f3fe608060405234801561001057600080fd5b50600436106100365760003560e01c8063365b98b21461003b578063bd6be1de1461006f575b600080fd5b610055600480360381019061005091906103b7565b61008b565b604051610066959493929190610483565b60405180910390f35b61008960048036038101906100849190610627565b6102f1565b005b6000818154811061009b57600080fd5b90600052602060002090600502016000915090508060000180546100be90610741565b80601f01602080910402602001604051908101604052809291908181526020018280546100ea90610741565b80156101375780601f1061010c57610100808354040283529160200191610137565b820191906000526020600020905b81548152906001019060200180831161011a57829003601f168201915b50505050509080600101805461014c90610741565b80601f016020809104026020016040519081016040528092919081815260200182805461017890610741565b80156101c55780601f1061019a576101008083540402835291602001916101c5565b820191906000526020600020905b8154815290600101906020018083116101a857829003601f168201915b5050505050908060020180546101da90610741565b80601f016020809104026020016040519081016040528092919081815260200182805461020690610741565b80156102535780601f1061022857610100808354040283529160200191610253565b820191906000526020600020905b81548152906001019060200180831161023657829003601f168201915b50505050509080600301549080600401805461026e90610741565b80601f016020809104026020016040519081016040528092919081815260200182805461029a90610741565b80156102e75780601f106102bc576101008083540402835291602001916102e7565b820191906000526020600020905b8154815290600101906020018083116102ca57829003601f168201915b5050505050905085565b600080600181600181540180825580915050039060005260206000209060050201905085816000019081610325919061091e565b5084816001019081610337919061091e565b5083816002019081610349919061091e565b5082816003018190555081816004019081610364919061091e565b50505050505050565b6000604051905090565b600080fd5b600080fd5b6000819050919050565b61039481610381565b811461039f57600080fd5b50565b6000813590506103b18161038b565b92915050565b6000602082840312156103cd576103cc610377565b5b60006103db848285016103a2565b91505092915050565b600081519050919050565b600082825260208201905092915050565b60005b8381101561041e578082015181840152602081019050610403565b60008484015250505050565b6000601f19601f8301169050919050565b6000610446826103e4565b61045081856103ef565b9350610460818560208601610400565b6104698161042a565b840191505092915050565b61047d81610381565b82525050565b600060a082019050818103600083015261049d818861043b565b905081810360208301526104b1818761043b565b905081810360408301526104c5818661043b565b90506104d46060830185610474565b81810360808301526104e6818461043b565b90509695505050505050565b600080fd5b600080fd5b7f4e487b7100000000000000000000000000000000000000000000000000000000600052604160045260246000fd5b6105348261042a565b810181811067ffffffffffffffff82111715610553576105526104fc565b5b80604052505050565b600061056661036d565b9050610572828261052b565b919050565b600067ffffffffffffffff821115610592576105916104fc565b5b61059b8261042a565b9050602081019050919050565b82818337600083830152505050565b60006105ca6105c584610577565b61055c565b9050828152602081018484840111156105e6576105e56104f7565b5b6105f18482856105a8565b509392505050565b600082601f83011261060e5761060d6104f2565b5b813561061e8482602086016105b7565b91505092915050565b600080600080600060a0868803121561064357610642610377565b5b600086013567ffffffffffffffff8111156106615761066061037c565b5b61066d888289016105f9565b955050602086013567ffffffffffffffff81111561068e5761068d61037c565b5b61069a888289016105f9565b945050604086013567ffffffffffffffff8111156106bb576106ba61037c565b5b6106c7888289016105f9565b93505060606106d8888289016103a2565b925050608086013567ffffffffffffffff8111156106f9576106f861037c565b5b610705888289016105f9565b9150509295509295909350565b7f4e487b7100000000000000000000000000000000000000000000000000000000600052602260045260246000fd5b6000600282049050600182168061075957607f821691505b60208210810361076c5761076b610712565b5b50919050565b60008190508160005260206000209050919050565b60006020601f8301049050919050565b600082821b905092915050565b6000600883026107d47fffffffffffffffffffffffffffffffffffffffffffffffffffffffffffffffff82610797565b6107de8683610797565b95508019841693508086168417925050509392505050565b6000819050919050565b600061081b61081661081184610381565b6107f6565b610381565b9050919050565b6000819050919050565b61083583610800565b61084961084182610822565b8484546107a4565b825550505050565b600090565b61085e610851565b61086981848461082c565b505050565b5b8181101561088d57610882600082610856565b60018101905061086f565b5050565b601f8211156108d2576108a381610772565b6108ac84610787565b810160208510156108bb578190505b6108cf6108c785610787565b83018261086e565b50505b505050565b600082821c905092915050565b60006108f5600019846008026108d7565b1980831691505092915050565b600061090e83836108e4565b9150826002028217905092915050565b610927826103e4565b67ffffffffffffffff8111156109405761093f6104fc565b5b61094a8254610741565b610955828285610891565b600060209050601f8311600181146109885760008415610976578287015190505b6109808582610902565b8655506109e8565b601f19841661099686610772565b60005b828110156109be57848901518255600182019150602085019450602081019050610999565b868310156109db57848901516109d7601f8916826108e4565b8355505b6001600288020188555050505b50505050505056fea2646970667358221220c2abc37b3383d4fddda87b8bf647f9525b1d409d3b4f5b33854ed30e4d2e5d6264736f6c63430008120033",
  "immutableReferences": {},
  "source": "// SPDX-License-Identifier: MIT\r\npragma solidity ^0.8.17;\r\n\r\ncontract RegisteredUsers {\r\n  struct User {\r\n    string name;\r\n    string email;\r\n    string role;\r\n    uint uid;\r\n    string walletAddress;\r\n  }\r\n\r\n  User[] public users;\r\n\r\n  constructor() {}\r\n\r\n  function register(string memory name_, string memory email_, string memory role_, uint uid_, string memory walletAddress_) public {\r\n    User storage userData = users.push();\r\n    userData.name = name_;\r\n    userData.email = email_;\r\n    userData.role = role_;\r\n    userData.uid = uid_;\r\n    userData.walletAddress = walletAddress_;\r\n  }\r\n}\r\n",
  "sourcePath": "D:\\Blockchain\\permit2-react\\contracts\\RegisteredUsers.sol",
  "compiler": {
    "name": "solc",
    "version": "0.8.18+commit.87f61d96.Emscripten.clang"
  },
  "schemaVersion": "3.4.14",
  "updatedAt": "2023-08-09T04:58:50.516Z",
  "networkType": "ethereum",
  "devdoc": {
    "kind": "dev",
    "methods": {},
    "version": 1
  },
  "userdoc": {
    "kind": "user",
    "methods": {},
    "version": 1
  }
}